:020000040800F2
:10000000000002200524000855240008552400089B
:10001000552400085524000855240008000000005D
:10002000000000000000000000000000552400084F
:10003000552400080000000055240008552400083D
:1000400055240008552400085524000855240008AC
:10005000552400085524000855240008552400089C
:10006000552400085524000855240008552400088C
:10007000552400085524000855240008552400087C
:10008000552400085524000855240008552400086C
:10009000552400085524000855240008552400085C
:1000A000552400085524000855240008552400084C
:1000B0006D05000855240008552400085524000843
:1000C000552400085524000855240008552400082C
:1000D000552400085524000855240008552400081C
:1000E000552400085524000855240008552400080C
:1000F00055240008552400085524000855240008FC
:1001000055240008552400085524000855240008EB
:1001100055240008552400085524000855240008DB
:1001200055240008552400085524000855240008CB
:1001300055240008552400085524000855240008BB
:1001400055240008552400085524000855240008AB
:10015000552400085524000855240008552400089B
:10016000552400085524000855240008552400088B
:10017000552400085524000855240008552400087B
:08018000552400085524000875
:1001880010B5054C237833B9044B13B10448AFF3C9
:1001980000800123237010BD5804002000000000D7
:1001A8004C27000808B5064B1BB106480649AFF3B3
:1001B80000800648036813B1054B03B1984708BD92
:1001C800000000004C2700085C04002054040020B4
:1001D80000000000154B002B08BF134B9D46A3F5EC
:1001E800803A00218B460F461348144A121A02F02F
:1001F80067F90F4B002B00D098470E4B002B00D00F
:1002080098470020002104000D000D48002802D066
:100218000C4802F021FA02F02BF92000290002F024
:10022800BBF802F015F900BF00000800000000004C
:10023800000000000000000058040020780400209E
:10024800612600086D26000808B50F20012100F07E
:1002580097FB01214FF4021000F0B6FB012000F0DB
:10026800CDFA01200146BDE8084000F0ADBB00BF53
:100278002DE9F04FDFF8BCA02C4E2D4CDFF8B890DC
:1002880083B0022510274FF00008504669464FF00A
:10029800010B00978DF804B08DF807508DF80550C4
:1002A8008DF8068000F0EAFC4FF41073694630467A
:1002B80000938DF804508DF806B08DF807808DF8FE
:1002C800055000F0DBFC30460621042200F074FDE6
:1002D80004223046092100F06FFD4FF4A45369460B
:1002E800204600938DF8068000F0C8FC6946484611
:1002F800009700F0C3FC48460421062200F05CFD8C
:1003080020460721062200F057FD20460A21062232
:1003180000F052FD204606220C2100F04DFD50460B
:10032800394600F03BFD03B0BDE8F08F0004024001
:1003380000080240000C02400000024030B50E4C9C
:1003480085B000234FF40072204669464BF680358D
:10035800ADF80620ADF80020ADF80430ADF8023055
:10036800ADF80C30029500F09BFD2046012100F00D
:100378002BFE05B030BD00BF003C0040F0B5104C6E
:10038800104B85B04FF48042009320464BF6FF7324
:100398006946002763264FF48065ADF80C20ADF858
:1003A8000630ADF80470ADF80860ADF80A5001F0F9
:1003B80001FE2046012101F07FFE05B0F0BD00BF1F
:1003C80000540040A086010038B504460D461D487B
:1003D8004FF4003101F0AEFF0028F8D1194801218F
:1003E80001F078FE1748184901F0A4FF0028F9D059
:1003F80014489421002201F089FE1248134901F0A3
:1004080085FF0028F9D085B1013D54FA85F5013CF6
:100418000C4814F8011F01F011FF0A480C4901F0BB
:1004280075FF0028F9D0AC42F2D10648094901F01D
:1004380081FF0028F9D003480121BDE8384001F0C8
:1004480057BE00BF005400400100001082000700A2
:100458008000070004000010704700BF30B52E4828
:1004680083B0102100F098FC0A2401A81A23022165
:100478008DF804308DF80540FFF7A6FF01A81B236F
:1004880002218DF805408DF80430FFF79DFF042206
:1004980001A8AF2302218DF8042000248DF805302F
:1004A800FFF792FF01A8992302218DF805308DF8F6
:1004B8000440FFF789FF472201A8802302218DF815
:1004C80004208DF805303225FFF77EFF01A8FF23B1
:1004D80002218DF805308DF80450FFF775FF7F2352
:1004E80001A802218DF805308DF80450FFF76CFF44
:1004F80001A802218DF804408DF80540FFF764FF3C
:1005080002239E2201A819468DF804308DF8052093
:10051800FFF75AFF03B030BD000C024000B585B0AC
:1005280001A800F05DFFFF2301A940F2ED224FF082
:1005380080400293ADF8042000F004FF01210A4630
:100548004FF0804001F0D4FB4FF08040012100F0D3
:10055800A9FF034B4FF080521A6005B05DF804FB09
:1005680000E100E008B501214FF0804001F0E2FB16
:10057800034B5978002281F0010159701A7008BDA7
:1005880074040020354B36481968002241F00101F7
:1005980019609A60196821F0847121F4803119601A
:1005A8005860196882B021F480211960DA600092DD
:1005B80001921A6842F480321A601A4603E0009BDE
:1005C800B3F5A06F09D0136803F400330193009BBF
:1005D80001330093019B002BF1D0204B1B6813F4CF
:1005E800003318BF01230193019B012B05D01D4B3C
:1005F8004FF000629A6002B07047184B1A4A186CA4
:100608001A4940F080501864106840F48040106027
:100618009A689A609A6842F400429A609A6842F42A
:10062800A0529A6059601A6842F080721A6019469E
:100638000B680A4A9B01FBD50D4B40F20561196016
:10064800936823F003039360936843F00203936075
:10065800936803F00C03082BFAD1C8E7003802406E
:100668001030002400ED00E00070004008544007FE
:10067800003C0240154B9A6802F00C02042A23D071
:10068800082A09D0124A1149124B8968C1F303118B
:10069800595CCA401A617047586859685B684202D9
:1006A8004CBF0D4A0A4A01F03F01C3F38813B2FB5D
:1006B800F1F202FB03F2054B5B68C3F3014301331C
:1006C8005B00B2FBF3F2DEE7034ADCE700380240E6
:1006D8000024F4000400002040787D017C270008F5
:1006E8000000002054040020580400207804002052
:1006F8000A4B0B481A68002142F001021A609960FF
:100708001A6822F0847222F480321A6058601A68DB
:1007180022F480221A60D960704700BF0038024076
:1007280010300024024B00221A701870704700BF66
:100738000238024082B000230B4A019313689B03DE
:100748000CD4019B01330193019BB3F5A06FF5D144
:10075800054B1868C0F3404002B07047019B013355
:100768000193019BF4E700BF00380240034B1A686D
:1007780022F0F80242EAC0001860704700380240D0
:10078800014B1860704700BF00004742064B00222B
:1007980001281A701A7005D0042802D105221A708F
:1007A800704770471870704770380240014B1860E6
:1007B800704700BF800E474230B4029C064D40EAA5
:1007C80004605B080143013B41EA821242EA0343A9
:1007D8006B6030BC704700BF00380240014B1860A6
:1007E800704700BF600047420907034B41EA801089
:1007F800C3F88400704700BF00380240014B1860FE
:10080800704700BF68004742014B1860704700BF3F
:100818004C004742034B9A6822F0EC6211430843AC
:100828009860704700380240034B9A6822F078427B
:10083800114308439860704700380240034B9A6898
:1008480022F0030210439860704700BF003802404E
:10085800024B986800F00C00704700BF0038024057
:10086800034B9A6822F0F00210439860704700BF6B
:1008780000380240034B9A6822F4E0521043986013
:10088800704700BF00380240034B9A6822F4604268
:1008980042EAC00098607047003802401F4A9368D7
:1008A80003F00C03042B10B41BD0082B1CD01C4BDA
:1008B80003601A491B4A8C68C4F30314145DE340AF
:1008C80043608C68C4F38224145D23FA04F48460C2
:1008D80089685DF8044BC1F34231525CD340C36070
:1008E8007047114B0360E4E754685168526863022B
:1008F8004CBF0D4B0A4B01F03F01C2F38812B3FB0A
:10090800F1F303FB02F3054A5268C2F301420132D4
:100918005200B3FBF2F30360CBE700BF003802409C
:100928000024F4001800002040787D0100F4407392
:10093800B3F5407F09D1084A916820F0704321F44B
:10094800F81123F440730B439360034B1A6FC0F301
:100958000B0010431867704700380240014B1860BD
:10096800704700BF3C0E4742014B1860704700BFFC
:10097800400E4742014B1860704700BF5C01474278
:10098800044B1A6B19B922EA000018637047104328
:100998001863704700380240044B5A6B19B922EAB1
:1009A800000058637047104358637047003802408E
:1009B800044B9A6B19B922EA0000986370471043F8
:1009C8009863704700380240044B1A6C19B922EA40
:1009D80000001864704710431864704700380240DC
:1009E800044B5A6C19B922EA000058647047104346
:1009F8005864704700380240044B1A6919B922EA52
:100A080000001861704710431861704700380240B1
:100A1800044B5A6919B922EA00005861704710431B
:100A28005861704700380240044B9A6919B922EAA4
:100A38000000986170471043986170470038024081
:100A4800044B1A6A19B922EA000018627047104369
:100A58001862704700380240044B5A6A19B922EAF2
:100A680000005862704710435862704700380240CF
:100A7800044B1A6D19B922EA000018657047104333
:100A88001865704700380240044B5A6D19B922EABC
:100A98000000586570471043586570470038024099
:100AA800044B9A6D19B922EA000098657047104303
:100AB8009865704700380240044B1A6E19B922EA4B
:100AC80000001866704710431866704700380240E7
:100AD800044B5A6E19B922EA000058667047104351
:100AE8005866704700380240044B1A7819B922EA50
:100AF8000000187070471043187070470D38024096
:100B08004309012B0BD0022B094B0CBF1B6F5B6FEA
:100B180000F01F0023FA00F000F001007047044BBA
:100B28001B6800F01F0023FA00F000F00100704776
:100B380000380240024B5A6F42F080725A67704781
:100B480000380240034BDB6818420CBF002001202C
:100B5800704700BF00380240014B1870704700BF53
:100B68000E38024008B53C4B984224D03B4B984283
:100B78002BD03B4B984232D03A4B984239D03A4B23
:100B8800984240D0394B984247D0394B98424ED082
:100B9800384B984255D0384B984200D008BD4FF496
:100BA80080700121FFF728FF4FF480700021BDE815
:100BB8000840FFF721BF01200146FFF71DFF012074
:100BC8000021BDE80840FFF717BF02200121FFF709
:100BD80013FF02200021BDE80840FFF70DBF0420E5
:100BE8000121FFF709FF04200021BDE80840FFF7B5
:100BF80003BF08200121FFF7FFFE08200021BDE800
:100C08000840FFF7F9BE10200121FFF7F5FE10207C
:100C18000021BDE80840FFF7EFBE20200121FFF7C3
:100C2800EBFE20200021BDE80840FFF7E5BE40208C
:100C38000121FFF7E1FE40200021BDE80840FFF751
:100C4800DBBE80200121FFF7D7FE80200021BDE810
:100C58000840FFF7D1BE00BF000002400004024078
:100C680000080240000C024000100240001402403C
:100C780000180240001C02400020024000222DE91A
:100C8800F00713460E6801274FF0030804E001330C
:100C9800102B02F102022CD007FA03F404EA06052D
:100CA800A542F4D1D0F8009091F804C008FA02F4F3
:100CB800E44304EA0909C0F80090D0F800900CFA5F
:100CC80002FA0CF1FF3C4AEA0909BCF1010FC0F82D
:100CD800009011D9C56891F807C02C40C460C56858
:100CE8000CFA02F401332C43102BC46002F1020207
:100CF800D2D1BDE8F0077047D0F808A091F8059068
:100D080091F806C004EA0A0AC0F808A0D0F808A0BA
:100D180009FA02F949EA0A09C0F80890D0F80490DB
:100D280029EA0505456045680CFA03FC1FFA8CFCA6
:100D38004CEA05054560CDE700234FF6FF720260D7
:100D4800037143718371C371704700BF82B04FF460
:100D580080330193019B0B430193019BC361C161E4
:100D6800019BC361C3690193C369019302B07047D2
:100D7800036919420CBF002001207047006980B246
:100D8800704700BF436919420CBF0020012070471B
:100D9800406980B2704700BF018370474183704744
:100DA8000AB9418370470183704700BF41617047AA
:100DB8004369594041617047CB0800EB830001F05B
:100DC800070110B48900046A0F238B4024EA030347
:100DD8000362036A5DF8044B8A4013430362704759
:100DE80008B5174B984212D0164B98421BD0164B99
:100DF800984200D008BD4FF400400121FFF720FEC3
:100E08004FF400400021BDE80840FFF719BE4FF439
:100E180080500121FFF720FE4FF480500021BDE8EB
:100E28000840FFF719BE4FF480400121FFF708FE84
:100E38004FF480400021BDE80840FFF701BE00BF25
:100E48000030014000380040003C00402DE9F00728
:100E5800B1F802A0B1F80090B1F804800F894E896A
:100E68008D89CC89B1F806C00A8A03884AEA090143
:100E780041EA080141EA0C0139433143294321433E
:100E880003F441530B439BB20380838B23F4006329
:100E98001B041B0C8383BDE8F0070282704700BF68
:100EA800838B8A6823F47B6323F00F031B042DE9EB
:100EB800F0031B0C022483830484B0F81CC0A242F4
:100EC8001FFA8CFC52D02B4B8C889D68002C0CBFD1
:100ED8004FF001084FF002082D0242D4254BDFF8ED
:100EE8009C90D3F88450D3F884605F68CB8807F06F
:100EF8003F07C5F38815B9FBF7F7B3F5007FC6F3CD
:100F0800027605FB07F5B5FBF6F516BF4FEA48185C
:100F18002D0AB5FBF8F505EB85056D00B5FBF2F27A
:100F28000532154D92B2A5FB0262D2085508AE1ED5
:100F380002F00102FD2E94BF45EA022202220F8828
:100F48004E888D894CEA070141F4006131432943F9
:100F5800134389B20C439BB203848483BDE8F00336
:100F680070479D6825F400059D60B7E78C88CB889D
:100F7800E5E700BF00380240CDCCCCCC40787D01FD
:100F8800002307220282038043808380C380038179
:100F980043818381C38170470023022282600380DA
:100FA80043808380C3808381704700BF038829B949
:100FB80023F040031B041B0C038070479BB243F0D3
:100FC80040030380704700BF838B29B923F48063F3
:100FD8001B041B0C838370479BB243F48063838399
:100FE800704700BF038823F400631B041B0C0380B5
:100FF80003889BB219430180704700BFB1F5804F49
:10100800038805D023F480431B041B0C038070471E
:101018009BB243F480430380704700BF4FF6FF63E1
:101028009942038804D09BB243F4807303807047CD
:1010380023F480731B041B0C03807047838829B931
:1010480023F004031B041B0C838070479BB243F0FE
:1010580004038380704700BF838829B923F01003F5
:101068001B041B0C838070479BB243F010038380E2
:10107800704700BF838B23F47B6323F00F031B04AB
:1010880002221B0C83830284838B0A8830B44D8828
:101098008C8889899BB22B4343F4006322F4007245
:1010A800234392B20B43002A9BB214BF00224FF491
:1010B80080721343838330BC704700BF808980B23D
:1010C800704700BF81817047038829B923F4005312
:1010D8001B041B0C038070479BB243F4005303802E
:1010E800704700BF03889BB243F480530380704766
:1010F800012914BF008B808A80B27047008A80B2B1
:10110800704700BF83889BB21AB923EA0101818026
:1011180070471943818070470123090903FA01F1D7
:10112800838889B29BB21AB923EA0101818070478A
:1011380019438180704700BF038919420CBF002002
:1011480001207047C94389B20181704710B484886F
:10115800008901F00F03012280B202FA03F318405C
:10116800A4B205D009098A4014420CBF002001200E
:101178005DF8044B704700BF01F00F01012303FA2B
:1011880001F1C94389B20181704700BF08B5604BBE
:10119800984235D0B0F1804F3CD05E4B984243D056
:1011A8005D4B98424AD05D4B984251D05C4B984277
:1011B80058D05C4B98425FD05B4B984266D05B4BF3
:1011C80098426DD05A4B984276D05A4B98427FD06D
:1011D800594B984200F08880584B984200F08E8016
:1011E800574B984200D008BD4FF480700121FFF79B
:1011F80027FC4FF480700021BDE80840FFF720BCB1
:1012080001200146FFF728FC01200021BDE8084025
:10121800FFF722BC01200146FFF712FC0120002144
:10122800BDE80840FFF70CBC02200121FFF708FCCD
:1012380002200021BDE80840FFF702BC042001217C
:10124800FFF7FEFB04200021BDE80840FFF7F8BBCC
:1012580008200121FFF7F4FB08200021BDE8084021
:10126800FFF7EEBB10200121FFF7EAFB1020002159
:10127800BDE80840FFF7E4BB20200121FFF7E0FBB1
:1012880020200021BDE80840FFF7DABB0220012139
:10129800FFF7E2FB02200021BDE80840FFF7DCBBB6
:1012A8004FF480300121FFF7D7FB4FF48030002145
:1012B800BDE80840FFF7D0BB4FF400300121FFF72D
:1012C800CBFB4FF400300021BDE80840FFF7C4BB5A
:1012D8004FF480200121FFF7BFFB4FF4802000214D
:1012E800BDE80840FFF7B8BB40200121FFF7A8FB85
:1012F80040200021BDE80840FFF7A2BB8020012163
:10130800FFF79EFB80200021BDE80840FFF798BB4F
:10131800000001400004004000080040000C0040AC
:10132800001000400014004000040140004001404B
:10133800004401400048014000180040001C0040E3
:1013480000200040234A0388904270B49BB212D018
:1013580002F5806290420ED0B0F1804F0BD0A2F51A
:101368008032904207D002F58062904203D002F5A5
:101378008062904203D14A8823F070031343164ACF
:1013880090421ED002F5806290421AD00E894D68B4
:101398000C8823F4407302F56C429BB233439042AD
:1013A8000380C562048506D00C4B984203D0012304
:1013B800838270BC70478B7A03860123838270BC5A
:1013C800704703800B884A68C262038501238382C1
:1013D80070BC70470000014000100040000401404C
:1013E80000234FF0FF324260038003814380837201
:1013F800704700BF01858282704700BF038823F0D1
:1014080070031B041B0C194301807047416270472D
:10141800C1627047406A7047008D80B2704700BF54
:10142800038829B923F002031B041B0C03807047AF
:101438009BB243F002030380704700BF038829B9B9
:1014480023F004031B041B0C038070479BB243F07A
:1014580004030380704700BF038829B923F0800381
:101468001B041B0C038070479BB243F0800303806E
:10147800704700BF038823F008031B041B0C03807C
:1014880003889BB219430180704700BF038823F487
:1014980040731B041B0C038003889BB21943018013
:1014A800704700BF038829B923F001031B041B0CF4
:1014B800038070479BB243F001030380704700BF6D
:1014C800F0B4048CB1F802C08F890E881B4D24F04B
:1014D80001042404240C0484028C8488038B22F0E5
:1014E800020223F0730312044CEA07071B04120CD0
:1014F800BFB21B0CA84247EA0202A4B243EA0603A1
:101508000AD005F58065A84206D0896884800383DF
:10151800F0BC416302847047B1F80EC04F8A0D8A4F
:101528008E8822F0080242EA0C023D4324F44074FB
:1015380022F00402ADB232432C43E6E7000001403A
:10154800F0B4048CB1F80CC04F880E881F4D24F0FD
:1015580010042404240C0484028C8488038B22F055
:101568002002120423F4E643120C1B0442EA0C1274
:101578001B0C42EA071243EA0623A84292B2A4B21D
:101588009BB20AD005F58065A84206D08968848098
:101598000383F0BC816302847047CD89B1F810C021
:1015A8008F884E8A22F0800292B242EA051224F411
:1015B80040644FF6BF75154044EA8C0445EA0712AB
:1015C80044EA860492B2A4B2E0E700BF00000140FA
:1015D800F0B4048CB1F80CC04F880E881E4D24F46A
:1015E80080742404240C0484028C8488838B22F461
:1015F80000721204120C23F0730342EA0C221B043B
:1016080042EA07221B0CA84292B2A4B243EA06039C
:101618000AD005F58065A84206D08968848083834E
:10162800F0BCC16302847047CD89B1F810C08F88BF
:101638004E8A22F4006292B242EA052224F440540F
:101648004FF6FF35154044EA0C1445EA072244EAF0
:10165800061492B2A4B2E0E700000140F0B4048C92
:10166800B1F80CC04F880E88164D24F48054240419
:10167800240C0484028C8488838B22F40052120484
:1016880023F4E643120C1B0442EA0C321B0C42EA18
:10169800073243EA0623A84292B2A4B29BB20AD008
:1016A80005F58065A84206D0896884808383F0BCEC
:1016B8000164028470470D8A24F4804444EA851446
:1016C800A4B2F1E700000140002303804380838037
:1016D80083608381C381038243827047038C10B483
:1016E80001249BB28C4023EA040421F008030484FB
:1016F80018307BB10439C1F34E0148F6FF730C581A
:1017080023400B5012020B585DF8044B92B21A4357
:101718000A50704749084FF68F7344582340435086
:1017280043585DF8044B1A43425070474163704771
:1017380081637047C163704701647047038B23F06E
:1017480070031B041B0C194301837047038B23F49C
:10175800E0431B041B0C43EA01218BB2038370474F
:10176800838B23F070031B041B0C19438183704780
:10177800838B23F4E0431B041B0C43EA01218BB247
:1017880083837047038B23F008031B041B0C194346
:1017980001837047038B23F400631B041B0C43EA8B
:1017A80001218BB203837047838B23F008031B044A
:1017B8001B0C194381837047838B23F400631B043C
:1017C8001B0C43EA01218BB283837047038B23F000
:1017D80004031B041B0C194301837047038B23F478
:1017E80080631B041B0C43EA01218BB203837047FF
:1017F800838B23F004031B041B0C1943818370475C
:10180800838B23F480631B041B0C43EA01218BB2F6
:1018180083837047038B23F080031B041B0C19433D
:1018280001837047038BC3F30E0343EA01218BB294
:1018380003837047838B23F080031B041B0C19431D
:1018480081837047838BC3F30E0343EA01218BB274
:1018580083837047038C23F002031B041B0C19437A
:1018680001847047038C23F008031B041B0C1943E5
:1018780001847047038C23F020031B041B0C43EAEC
:1018880001118BB203847047038C23F080031B047F
:101898001B0C43EA01118BB203847047038C23F4B9
:1018A80000731B041B0C43EA01218BB203847047AD
:1018B800038C23F400631B041B0C43EA01218BB245
:1018C80003847047038C23F400531B041B0C43EA66
:1018D80001318BB203847047038C10B401248C400F
:1018E8009BB223EA04030384038C5DF8044B8A400B
:1018F80013439BB203847047038C10B404248C40B8
:101908009BB223EA04030384038C5DF8044B8A40EA
:1019180013439BB2038470470B88F0B4002B32D07A
:10192800042B58D0082B038C00F083804E888F88B6
:101938000D89CC8823F480510904090C0184828B19
:10194800038C22F4407223F4005312055B04120D39
:101958005B0C42EA072243EA063342EA05329BB2AD
:1019680043F4805392B282830384838B23F44063CD
:101978001B041B0C8383838B9BB243EA04239BB217
:101988008383F0BC7047028C8D880E894C88C98887
:1019980022F001021204120C0284028B038C92B210
:1019A80022F0F30223F00A0342EA06121B0444F071
:1019B800010492B21B0C23432A4302830384038B42
:1019C80023F00C031B041B0C0383038B9BB20B43F8
:1019D8000383F0BC7047028C4E888C880F89C988B5
:1019E80022F010021204120C0284038B058C23F4DB
:1019F80040731B051B0DADB243EA073225F0A00565
:101A080045EA061392B242EA04229BB243F010035D
:101A180092B202830384038B23F440631B041B0CE0
:101A28000383038B9BB243EA01239BB20383F0BC7D
:101A3800704723F480731B041B0C4D888C880E8917
:101A4800CA880384818B038C89B29BB221F0F3018D
:101A580023F4206341EA061143EA052389B29BB2C5
:101A680043F48073214381830384838B23F00C0325
:101A78001B041B0C8383838B9BB21343838380E7F4
:101A880000230122828003804380C3800381704742
:101A9800F0B44D888C880B88B1F808C0028CC988CE
:101AA800002D14BF00260226012C14BF012702278F
:101AB800002B4BD022F010021204120C0284038B6C
:101AC800028C23F440731B051B0D92B243EA0C33BE
:101AD80022F0A0029BB242EA051543EA0424ADB203
:101AE800A4B245F0100504830584038B23F44063F6
:101AF8001B041B0C0383038B9BB243EA01239BB299
:101B08000383038C23F001031B041B0C0384028B47
:101B1800038C92B222F0F3029BB242EA0C1C23F02F
:101B28000A0343F001031FFA8CFC1E434CEA070723
:101B380007830684038B23F00C031B041B0C03830D
:101B4800038B9BB219430183F0BC704722F001025A
:101B58001204120C0284038B028C9BB223F0F30351
:101B680022F00A0243EA0C13120445F001059BB265
:101B7800120C1C432A4304830284028B22F00C02B9
:101B88001204120C0283038B9BB20B430383028C57
:101B980022F010021204120C0284038B028C23F42C
:101BA80040731B051B0D92B243EA0C3322F0A002CE
:101BB8009BB242F0100243EA072742EA061607835F
:101BC8000684038B23F440631B041B0C0383038BE1
:101BD8009BB243EA012189B20183F0BC704700BF80
:101BE800406B7047806B7047C06B7047006C7047E4
:101BF800038B23F00C031B041B0C0383038B9BB286
:101C080019430183704700BF038B23F440631B040F
:101C18001B0C0383038B9BB243EA01218BB2038322
:101C2800704700BF838B23F00C031B041B0C8383BA
:101C3800838B9BB219438183704700BF838B23F446
:101C480040631B041B0C8383838B9BB243EA0121F3
:101C58008BB28383704700BFB1F802C00B888A89B2
:101C6800F0B48F88CE880D894C894CEA03033B4336
:101C780033432B43234313439BB2A0F84430F0BCB7
:101C8800704700BF0023038043808380C3800381A3
:101C980043818381704700BFB0F8443021B9C3F352
:101CA8000E03A0F8443070476FEA43436FEA53438A
:101CB8009BB2A0F844307047838829B923F0040305
:101CC8001B041B0C838070479BB243F00403838082
:101CD800704700BF838829B923F001031B041B0C3C
:101CE800838070479BB243F001038380704700BF35
:101CF80083899BB21AB923EA01018181704719438C
:101D08008181704781827047038A19420CBF002085
:101D180001207047C94389B201827047038A8289CA
:101D280011EA030092B203D011420CBF0020012037
:101D3800704700BFC94389B2018270470A43A0F8BF
:101D48004820704783899BB21AB923EA010181812F
:101D58007047194381817047838829B923F00803A4
:101D68001B041B0C838070479BB243F008038380DD
:101D7800704700BF038923F007031B041B0C038172
:101D8800704700BF038923F070031B041B0C194321
:101D9800018103899BB243F007030381704700BFA9
:101DA800602930B4048C24D024F001042404240CC9
:101DB8000484058B048CADB225F0F305A4B245F07C
:101DC800010524F00A0445EA031344F001049BB218
:101DD800224303830284038923F070031B041B0C32
:101DE8000B43038103899BB243F00703038130BC93
:101DF800704724F010042404240C0484048B058CFC
:101E080024F440742405ADB2240D25F0A00544F453
:101E1800807445F0100544EA033345EA02129BB288
:101E280092B203830284D6E710B4048942EA0323FA
:101E3800E4B223439BB21943018103895DF8044B43
:101E480023F077031B041B0C43F0770303817047CF
:101E580010B4048942EA0323E4B223439BB2194332
:101E6800018103895DF8044B9BB243F480430381ED
:101E7800704700BF038923F070031B041B0C194330
:101E880001817047838823F070031B041B0C838037
:101E980083889BB219438180704700BF038923F070
:101EA80007031B041B0C038103899BB2194301819F
:101EB800704700BF038923F080031B041B0C0381B8
:101EC80003899BB219430181704700BF10B404898C
:101ED800E4B221430A4342EA03239CB204815DF839
:101EE800044B704770B40589048B068C24F4407445
:101EF80024F00304B6B226F0220625F007052404D0
:101F080032432D04240C2D0C44F4807442EA03134C
:101F1800294344F001049EB201810483068470BC05
:101F2800704700BF838829B923F080031B041B0C6A
:101F3800838070479BB243F080038380704700BF63
:101F4800A0F85010704700BF08B5174B984212D040
:101F5800164B98421BD0164B984200D008BD4FF440
:101F680000000121FEF76CFD4FF400000021BDE8E0
:101F78000840FEF765BD4FF400100121FEF760FD33
:101F88004FF400100021BDE80840FEF759BD4FF49A
:101F980080000121FEF754FD4FF480000021BDE8C8
:101FA8000840FEF74DBD00BF0054004000580040F7
:101FB800005C0040F0B5044685B068460D46A6882A
:101FC800FEF76CFC029930482A68DFF8C4C0A0FB11
:101FD800013026F03F063604800C360C87B23E43AB
:101FE800A680238823F001031B041B0C6245238071
:101FF80023D85300B1FBF3F39BB2032B07F101077E
:1020080098BF04232784A38323886E89A8882989F5
:10201800AA899BB243F001032380238823F48163B8
:1020280023F002031B0430431B0C03430A439BB2F7
:1020380092B22380228105B0F0BDEE884BF6FF7383
:102048009E421AD002EB820202EB8202B1FBF2F34B
:102058009BB243F48043C3F30B020AB943F0010374
:102068004FF49671094A01FB00F082FB00108009C9
:10207800013043F400432084C5E702EB4202B1FB80
:10208800F2F39BB2E7E700BF83DE1B43D34D621038
:10209800A0860100002310B44BF6FF7141F288348A
:1020A8004FF480420460C180828183800381438130
:1020B8005DF8044B704700BF038829B923F001037A
:1020C8001B041B0C038070479BB243F00103038081
:1020D800704700BF038829B923F480731B041B0CC5
:1020E800038070479BB243F480730380704700BF3E
:1020F800038829B923F400731B041B0C0380704761
:102108009BB243F400730380704700BF1AB901F013
:10211800FE010182704741F001010182704700BF52
:10212800038829B923F480631B041B0C03807047C0
:102138009BB243F480630380704700BF83899BB2DE
:1021480001F0FE0123F0FE0319438181704700BFAF
:10215800838929B923F001031B041B0C8381704771
:102168009BB243F001038381704700BF038829B9FC
:1021780023F040031B041B0C038070479BB243F001
:1021880040030380704700BF038819B9C3F30E03E7
:10219800038070476FEA43436FEA53439BB203805F
:1021A800704700BF038829B123F080031B041B0C70
:1021B800038070479BB243F080030380704700BFE1
:1021C800B1F5804F838B05D023F480431B041B0C8F
:1021D800838370479BB243F480438383704700BF77
:1021E800B1F5006F038805D023F400631B041B0CB2
:1021F800038070479BB243F400630380704700BFBD
:10220800B1F5005F038805D023F400531B041B0CB1
:10221800038070479BB243F400530380704700BFAC
:10222800038829B923F010031B041B0C0380704793
:102238009BB243F010030380704700BF01827047D0
:10224800008AC0B2704700BF038829B923F48053BD
:102258001B041B0C038070479BB243F4805303801C
:10226800704700BFB1F5006F038805D023F4006301
:102278001B041B0C038070479BB243F4006303806C
:10228800704700BF038829B923F020031B041B0CE7
:10229800038070479BB243F020030380704700BF60
:1022A800008BC0F307207047838829B923F40063A3
:1022B8001B041B0C838070479BB243F4006383802C
:1022C800704700BF838829B923F480531B041B0C73
:1022D800838070479BB243F480538380704700BF6C
:1022E80082B0002301930190019B19440191019B45
:1022F800188880B202B0704783889BB21AB923EA63
:10230800010181807047194381807047828A038B5D
:1023180090B240EA034021F07F4318400B1A58421C
:1023280058417047828A038B90B240EA034020F0FC
:102338007F40704782B000230A0F009301930190F9
:102348000092009B21F07F4153B1019B143301930C
:10235800019B1B6819420CBF0020012002B0704786
:10236800019B1833090C0193F2E700BFC94389B2F6
:10237800818270478388808A80B208409BB206D0E9
:1023880001F0E06113EA11410CBF00200120704701
:10239800C94389B28182704770B5FDF755FFFDF7D3
:1023A80067FFFEF7BBF8FDF7C9FFFDF7E7FFFEF78C
:1023B80055F862B60F4C25460F2623780E48013390
:1023C800DBB20F2B4FF0020194BF2B702E70FEF77B
:1023D800B3FE0028F1D0637823B907482978FEF7BF
:1023E80071FEE9E729780448C1F1FF0189B2FEF7D7
:1023F80069FEE1E774040020003C0040002100F081
:1024080004B80D4B5B58435004310C480C4B421830
:102418009A42FFF4F6AF0B4A00F003B8002342F8E3
:10242800043B094B9A42FFF4F9AFFEF7ABF800F012
:102438001FF8FFF7B1FF70477C2700080000002055
:10244800540400205804002078040020FFF7FEBF41
:1024580008B50021044600F087F8044B1868C36BE0
:1024680003B19847204600F07BF900BF48270008D1
:1024780070B50F4E0F4D761BB61007D0043D0024E3
:10248800013455F8043F9847A642F9D10A4E0B4D3E
:10249800761B00F059F9B61008D0043D0024013429
:1024A80055F8043F9847A642F9D170BD70BD00BFEA
:1024B8007027000870270008782700087027000890
:1024C800F0B4840743D0541E002A3ED0CDB2034650
:1024D80003E0621E002C38D0144603F8015B9A070B
:1024E800F7D1032C2AD9CDB245EA05250F2C45EAA8
:1024F800054515D9A4F110073F0903F1100606EBAD
:1025080007161A46156055609560D5601032B242BC
:10251800F8D104F00F040137032C03EB07130DD98E
:102528001E462246043A032A46F8045BFAD8221FBC
:1025380022F003020432134404F003042CB1C9B29C
:102548001C4403F8011BA342FBD1F0BC704714469E
:102558000346C6E7024B13B1024800F07DB8704746
:10256800000000006D2600082DE9F04F384B1B686D
:1025780085B003F5A472019302900F460392019B64
:10258800D3F84881B8F1000F1CD0DDF80CB04FF03B
:102598000109DA46D8F804305C1E11D408F1880520
:1025A8009E1C05EB830508EB860677B1EB6FBB42F3
:1025B8000BD0013C631CA5F10405A6F10406F4D177
:1025C800244A7ABB05B0BDE8F08FD8F8042056F845
:1025D800043C013AA24216BF0022C8F8044046F85B
:1025E800042C002BE5D0D8F88811D8F804B009FAE3
:1025F80004F20A4210D0D8F88C110A420ED102987F
:1026080055F8041C9847D8F804305B45B7D1DAF878
:1026180000304345CDD0B2E79847F4E755F8040CAD
:102628009847F0E7D8F804306BB9D8F8003063B1B0
:102638004046CAF80030AFF30080DAF80080B8F1FD
:10264800000FA7D1BEE7D8F80030C2469846F6E793
:102658004827000800000000014600200246034603
:1026680000F018B838B5094D094C641BA41018BF00
:1026780005EB840505D0013C55F8043D9847002C2E
:10268800F9D1BDE8384000F065B800BF78270008E8
:102698007C270008F0B5274C2668D6F8484185B055
:1026A8000746002C41D065681F2D1EDD224818B949
:1026B8004FF0FF3005B0F0BD4FF4C870039102929F
:1026C8000193AFF300800399029A019B0446002806
:1026D800EED0D6F848512560002060600546C6F85F
:1026E8004841C4F88801C4F88C013FB9AB1C0020EC
:1026F8000135656044F8231005B0F0BD04EB850092
:102708004FF0010CC0F88820D4F888610CFA05F263
:102718001643022FC4F88861C0F80831E6D1D4F80E
:102728008C311A43C4F88C21E0E706F5A674C6F884
:102738004841B8E7482700080000000043000000AF
:102748002800002000000000F8B500BFF8BC08BC55
:102758009E467047F8B500BFF8BC08BC9E46704757
:0827680074DAFF7F010000009C
:082770005D250008AD01000821
:0427780089010008CB
:10277C000000000000000000000000000102030443
:10278C0006070809007A030A00000000010203048E
:10279C0001020304060708090000000014030020CE
:1027AC007C030020E4030020000000000000000077
:1027BC00000000000000000000000000000000000D
:1027CC00000000000000000000000000442700088A
:1027DC0000000000000000000000000000000000ED
:1027EC0000000000000000000000000000000000DD
:1027FC0000000000000000000000000000000000CD
:10280C0000000000000000000000000000000000BC
:10281C0000000000000000000000000000000000AC
:10282C00000000000000000000000000000000009C
:10283C00000000000000000000000000000000008C
:10284C0001000000000000000E33CDAB34126DE629
:10285C00ECDE05000B000000000000000000000092
:10286C00000000000000000000000000000000005C
:10287C00000000000000000000000000000000004C
:10288C00000000000000000000000000000000003C
:10289C00000000000000000000000000000000002C
:042BCC0028000020BD
:042BD0000000000001
:0400000508002405C6
:00000001FF
